:100000000C9434000C9453000C9463000C94510035
:100010000C9451000C9451000C9451000C9451001C
:100020000C9451000C9451000C9451000C9451000C
:100030000C9451000C9451000C9451000C945100FC
:100040000C9451000C9451000C9451000C945100EC
:100050000C9451000C9451000C9451000C945100DC
:100060000C9451000C94510011241FBECFEFD8E026
:10007000DEBFCDBF13E0A0E0B1E0E4E3F3E202C0F5
:1000800005900D92AA30B107D9F715E0AAE0B3E0C8
:1000900001C01D92AC31B107E1F70E9473000C94CE
:1000A00098110C9400001F920F920FB60F9211241A
:1000B000DF93CF93CDB7DEB7CF91DF910F900FBE17
:1000C0000F901F9018951F920F920FB60F92112448
:1000D000DF93CF93CDB7DEB7CF91DF910F900FBEF7
:1000E0000F901F901895DF93CF9300D0CDB7DEB758
:1000F0000E94060184E890E0FC012081318180911A
:100100000C0390910D03A901481B590BCA0159E03A
:10011000843C950708F477C080910E03843608F478
:1001200053C010920E0380910F038F5F80930F03D3
:1001300080910F03882F90E08F709070009709F0E6
:1001400048C00E94CB049A83898300D000D08DB729
:100150009EB7019624E131E0FC013183208329819F
:100160003A81FC01338322830E94C00E0F900F90CE
:100170000F900F90F89489819A81F9E0873F9F074B
:1001800008F58EE191E00E94DC0E83E590E023E526
:1001900030E0F9012081217F2460FC01208383E588
:1001A00090E023E530E0F90120812160FC0120830B
:1001B000889583E590E023E530E0F90120812E7FEA
:1001C000FC012083789405C080910E038F5F80939B
:1001D0000E0384E890E0FC018081918190930D03EF
:1001E00080930C0384E890E0FC01208131818091B0
:1001F0000C0390910D03A901481B590BCA01909360
:100200001505809314050E94B30174CFDF93CF933B
:1002100000D0CDB7DEB785E590E025E530E0F90107
:1002200020812061FC01208380E890E0FC011082A5
:1002300081E890E023E0FC01208384E290E024E266
:1002400030E0F90120812F62FC01208387E290E0F9
:1002500027E230E0F9012081FC0120838AE290E06E
:100260002AE230E0F90120812260FC01208385E24E
:1002700090E025E230E0F90120812762FC01208333
:1002800085EC90E0FC01108284EC90E028E0FC0119
:10029000208381EC90E028E1FC01208380E091E064
:1002A00090931905809318058CE490E02CE5FC01EF
:1002B00020838CE790E020E4FC0120838AE790E033
:1002C00026E8FC0120838EE790E02FE3FC012083E9
:1002D0000E94390581E00E941F068AE291E00E9497
:1002E000DC0E84E16AE048E20E94390700D08DB755
:1002F0009EB701962BE331E0FC01318320830E94FD
:10030000C00E0F900F900E94F904882311F18DE424
:1003100091E00E94DC0E1A8219820CC089819A81B8
:100320008C5E9C4F2AE2FC01208389819A81019690
:100330009A83898389819A81F1E08F3F9F0770F3C7
:100340008AE08093130578940F900F90CF91DF91FE
:10035000089580E591E00E94DC0E8AE06EE14EE1B6
:100360000E943907FACF0F931F93DF93CF93CDB736
:10037000DEB762970FB6F894DEBF0FBECDBF00D0D8
:1003800000D08DB79EB7019628E531E0DC012D93B2
:100390003C9326E030E0FC01338322830E94C00EB0
:1003A0000F900F900F900F9000D000D08DB79EB798
:1003B00001962CE631E0DC012D933C932EE031E0F8
:1003C000FC01338322830E94C00E0F900F900F9088
:1003D0000F9060910E0170910F01409110015091AA
:1003E000110120911201309113018DB79EB708972A
:1003F0000FB6F8949EBF0FBE8DBF8DB79EB7019606
:10040000E9E7F1E0DC01ED93FC93FC017383628387
:10041000DC0115965C934E931497FC013783268379
:100420000E94C00E8DB79EB708960FB6F8949EBF77
:100430000FBE8DBF00D08DB79EB701962DE831E07D
:10044000DC012D933C930E94C00E0F900F901A82F6
:10045000198237C029813A81C901880F991F820FFB
:10046000931F880F991F9C01225F3E4FEDB7FEB787
:1004700038970FB6F894FEBF0FBEEDBF8DB79EB78D
:10048000019648E951E0DC014D935C93029646E009
:10049000F90100802F5F3F4FDC010C920196415023
:1004A0004423B1F70E94C00EEDB7FEB738960FB6E1
:1004B000F894FEBF0FBEEDBF89819A8101969A83A1
:1004C000898389819A818630910524F28AE090E0BF
:1004D0000E94D50E89E290E0DC018C91882F90E09B
:1004E00084709070009761F080911103882351F41B
:1004F0008DE991E00E94DC0E81E08093110302C03F
:100500001092110389E290E0FC018081882F90E035
:1005100088709070009709F422C185E290E0DC01B8
:100520002C912260FC01208385E290E0DC012C917B
:100530002E7FFC01208380EB0E94E40680E00E9475
:10054000E406882F90E09C838B8385E290E0DC01B9
:100550002C912160FC012083809112039091130360
:10056000019690931303809312032091120330910C
:10057000130300D000D08DB79EB7019649EA51E031
:10058000DC014D935C93FC01338322830E94C00EF7
:100590000F900F900F900F908B819C8180749070C2
:1005A000009769F000D08DB79EB701962DEA31E033
:1005B000DC012D933C930E94C00E0F900F908B8115
:1005C0009C8180729070009769F000D08DB79EB7C3
:1005D000019625EB31E0FC01318320830E94C00E9F
:1005E0000F900F908B819C8180719070009769F0C3
:1005F00000D08DB79EB701962DEB31E0DC012D9335
:100600003C930E94C00E0F900F908B819C8188704C
:100610009070009769F000D08DB79EB7019628ECD6
:1006200031E0FC01318320830E94C00E0F900F90B7
:100630008B819C8184709070009769F000D08DB799
:100640009EB7019623ED31E0DC012D933C930E948F
:10065000C00E0F900F908EED91E00E94DC0E80E0B6
:1006600090E0A0EAB0E48D839E83AF83B8876D816C
:100670007E818F81988520E030E04AE755E40E9432
:100680004B0ADC01CB0189879A87AB87BC8711E0D5
:1006900069857A858B859C8520E030E040E85FE3C2
:1006A0000E94A50B88230CF010E0112329F081E0B3
:1006B00090E09E878D8746C011E069857A858B859D
:1006C0009C8520E03FEF4FE757E40E94450B18164A
:1006D0000CF010E0112361F16D817E818F8198858E
:1006E00020E030E040E251E40E944B0ADC01CB0103
:1006F000BC01CD010E947708DC01CB019E878D876C
:1007000012C080E991E0988B8F878F8598898C0142
:10071000F8013197F1F78F01188B0F878D859E8532
:1007200001979E878D878D859E85009751F717C00D
:1007300069857A858B859C850E947708DC01CB01D1
:100740009E878D878D859E859A8B898B89899A89CD
:100750008C01C8010197F1F78C011A8B098B85E296
:1007600090E0DC012C912D7FFC01208362960FB676
:10077000F894DEBF0FBECDBFCF91DF911F910F91D7
:100780000895DF93CF93CDB7DEB780910F03282F65
:1007900030E000D000D08DB79EB7019649EA51E015
:1007A000DC014D935C93FC01338322830E94C00ED5
:1007B0000F900F900F900F900E94610460910E01B6
:1007C00070910F014091100150911101209112017F
:1007D000309113018DB79EB708970FB6F8949EBF5E
:1007E0000FBE8DBF8DB79EB70196E0EEF1E0DC0144
:1007F000ED93FC93FC0173836283DC0115965C939B
:100800004E931497FC01378326830E94C00E8DB748
:100810009EB708960FB6F8949EBF0FBE8DBF0E947C
:10082000CB049C0100D000D08DB79EB7019649EA59
:1008300051E0DC014D935C93FC01338322830E94E1
:10084000C00E0F900F900F900F908EED91E00E94D0
:10085000DC0ECF91DF910895DF93CF9300D0CDB719
:10086000DEB7198226C00E9461041A821AC08091E4
:100870000A0390910B0321E0853F9207B0F4809129
:100880000A0390910B039C012C5E3C4F41E4F9015B
:100890004083019690930B0380930A038A818F5FB4
:1008A0008A838A81863018F301C0000089818F5FB6
:1008B000898389818032B8F20F900F90CF91DF91B8
:1008C00008950F931F93DF93CF93CDB7DEB785E2E3
:1008D00090E0FC0120812E7FFC01208382EF0E94AA
:1008E000E40680E00E94E406882F90E090930F01D8
:1008F00080930E0100910E0110910F0180E00E9483
:10090000E406882F90E0982F8827800F911F9093FE
:100910000F0180930E0180E00E94E406882F90E092
:100920009093110180931001009110011091110119
:1009300080E00E94E406882F90E0982F8827800F9F
:10094000911F909311018093100180E00E94E406B2
:10095000882F90E09093130180931201009112016F
:100960001091130180E00E94E406882F90E0982FF8
:100970008827800F911F909313018093120185E2C5
:1009800090E0FC0120812160FC012083CF91DF9168
:100990001F910F910895DF93CF9300D0CDB7DEB7AD
:1009A0008EE00E94B0069A83898389819A819C0196
:1009B000220F331F220F331F89819A81880F991FBD
:1009C000280F391F89819A819695879596958795E5
:1009D000820F931F29EE34E1A901481B590BCA016C
:1009E0009A83898389819A810F900F90CF91DF91AB
:1009F0000895DF93CF9300D0CDB7DEB785E290E0C6
:100A0000FC0120812E7FFC01208380E80E94E40607
:100A100080E00E94E406898385E290E0FC01208169
:100A20002160FC01208385E290E0FC0120812B7F86
:100A3000FC0120838FE90E94E40680E00E94E40626
:100A400080E00E94E4068A8385E290E0FC01208138
:100A50002460FC0120838981853E29F48A818632C5
:100A600011F481E001C080E00F900F90CF91DF91F1
:100A700008950F931F93DF93CF93CDB7DEB7A5975C
:100A80000FB6F894DEBF0FBECDBFCE0141962CEE5F
:100A900031E045E1F90100802F5F3F4FFC0100820A
:100AA000019641504423B1F785E290E0FC0120819A
:100AB0002E7FFC0120838DE50E94E4061A821982B4
:100AC00010C09E012F5E3F4F89819A81820F931F34
:100AD000FC0180810E94E40689819A8101969A83B3
:100AE000898389819A81853191055CF385E290E063
:100AF000FC0120812160FC01208380E090E0A0E8DF
:100B0000BFE38B839C83AD83BE836B817C818D81AE
:100B10009E8120E030E04AE755E40E944B0ADC0168
:100B2000CB018F839887A987BA8711E06F81788579
:100B300089859A8520E030E040E85FE30E94A50BBC
:100B400088230CF010E0112329F081E090E09C87CD
:100B50008B8746C011E06F81788589859A8520E072
:100B60003FEF4FE757E40E94450B18160CF010E0DA
:100B7000112361F16B817C818D819E8120E030E0C9
:100B800040E251E40E944B0ADC01CB01BC01CD01E3
:100B90000E947708DC01CB019C878B8712C080E91B
:100BA00091E09E878D878D859E858C01C801019778
:100BB000F1F78C011E870D878B859C8501979C879B
:100BC0008B878B859C85009751F717C06F8178853F
:100BD00089859A850E947708DC01CB019C878B87E9
:100BE0008B859C85988B8F878F8598898C01F801E0
:100BF0003197F1F78F01188B0F8785E290E0FC01A8
:100C000020812E7FFC01208388E30E94E4068FED83
:100C10000E94E40685E290E0FC0120812160FC0155
:100C2000208381E080931003A5960FB6F894DEBF71
:100C30000FBECDBFCF91DF911F910F910895DF932C
:100C4000CF930F92CDB7DEB78983809110038823AD
:100C500011F40E94390589818823B9F485E290E076
:100C6000FC0120812E7FFC0120838DE60E94E4069A
:100C70008FE00E94E40680E10E94E40685E290E0B5
:100C8000FC0120812160FC01208389818130D1F425
:100C900085E290E0FC0120812E7FFC0120838CE620
:100CA0000E94E4068FE00E94E40688E20E94E406C7
:100CB0008FEF0E94E40685E290E0FC012081216034
:100CC000FC01208389818230B9F485E290E0FC0147
:100CD00020812E7FFC0120838DE60E94E40684E0C3
:100CE0000E94E40680E10E94E40685E290E0FC01B7
:100CF00020812160FC0120830F90CF91DF91089526
:100D0000DF93CF930F92CDB7DEB789838981882394
:100D100091F485E290E0FC0120812B7FFC0120838F
:100D200089EB0E94E40685E290E0FC0120812460CA
:100D3000FC01208311C085E290E0FC0120812B7F23
:100D4000FC0120838BEA0E94E40685E290E0FC012E
:100D500020812460FC0120830F90CF91DF910895C2
:100D6000DF93CF930F92CDB7DEB789838CE790E006
:100D700029812064FC0120838AE790E02AE730E0A3
:100D8000F90120812064FC01208300008AE790E0C3
:100D9000FC018081882F90E0807490700097B1F7FB
:100DA00088E790E0FC018081282F30E089E790E01F
:100DB000FC018081882F90E0982F8827820F931F55
:100DC0000F90CF91DF910895DF93CF930F92CDB71E
:100DD000DEB789838EE490E02981FC012083000046
:100DE0008DE490E0FC0180818823D4F78EE490E0CC
:100DF000FC0180810F90CF91DF910895DF93CF9315
:100E000000D00F92CDB7DEB789837B836A83898157
:100E10008A3031F42A813B818DE0B9010E94FE06BF
:100E200080EC90E0FC018081882F90E080729070CF
:100E30000097B1F386EC90E02981FC01208380E0EB
:100E400090E00F900F900F90CF91DF910895DF9376
:100E5000CF93CDB7DEB7000080EC90E0FC0180813D
:100E60008823D4F786EC90E0FC018081CF91DF915C
:100E700008950F931F93DF93CF93CDB7DEB76F978E
:100E80000FB6F894DEBF0FBECDBF8D8F6E8F4F8F24
:100E90001FC185E290E0FC0120812260FC012083DB
:100EA0008E8D882F90E0A0E0B0E0BC01CD010E94C3
:100EB000270CDC01CB0189839A83AB83BC836981D6
:100EC0007A818B819C8120E030E04AE755E40E94E2
:100ED0004B0ADC01CB018D839E83AF83B88711E081
:100EE0006D817E818F81988520E030E040E85FE36E
:100EF0000E94A50B88230CF010E0112329F081E05B
:100F000090E09A87898746C011E06D817E818F814C
:100F1000988520E03FEF4FE757E40E94450B1816F5
:100F20000CF010E0112361F169817A818B819C8141
:100F300020E030E040E251E40E944B0ADC01CB01AA
:100F4000BC01CD010E947708DC01CB019A8789871B
:100F500012C080E991E09C878B878B859C858C01F2
:100F6000C8010197F1F78C011C870B8789859A8549
:100F700001979A87898789859A85009751F717C0C5
:100F80006D817E818F8198850E947708DC01CB017D
:100F90009A87898789859A859E878D878D859E8585
:100FA0008C01F8013197F1F78F011E870D8785E2DB
:100FB00090E0FC0120812D7FFC0120838F8D882F04
:100FC00090E0A0E0B0E0BC01CD010E94270CDC0164
:100FD000CB018F87988BA98BBA8B6F85788989898C
:100FE0009A8920E030E04AE755E40E944B0ADC0190
:100FF000CB018B8B9C8BAD8BBE8B11E06B897C897D
:101000008D899E8920E030E040E85FE30E94A50BD7
:1010100088230CF010E0112329F081E090E0988FF4
:101020008F8B46C011E06B897C898D899E8920E079
:101030003FEF4FE757E40E94450B18160CF010E005
:10104000112361F16F85788989899A8920E030E0E0
:1010500040E251E40E944B0ADC01CB01BC01CD010E
:101060000E947708DC01CB01988F8F8B12C080E93A
:1010700091E09A8F898F898D9A8D8C01C801019793
:10108000F1F78C011A8F098F8F89988D0197988FAE
:101090008F8B8F89988D009751F717C06B897C894A
:1010A0008D899E890E947708DC01CB01988F8F8BF8
:1010B0008F89988D9C8F8B8F8B8D9C8D8C01F801E7
:1010C0003197F1F78F011C8F0B8F8D8D81508D8F94
:1010D0008D8D882309F0DDCE6F960FB6F894DEBFB4
:1010E0000FBECDBFCF91DF911F910F910895EF9269
:1010F000FF920F931F937B018C0120E030E040E0D2
:101100005FE40E94750B87FD11C0C801B70120E0A4
:1011100030E040E05FE40E941A0A0E94D50B9B0178
:10112000AC01205030404040504806C0C801B701D3
:101130000E94D50B9B01AC01B901CA011F910F910F
:10114000FF90EF900895A0E0B0E0E9EAF8E00C9499
:101150008D0EFC01EA018081823008F438C1DB0188
:101160009C91923008F430C1843059F4943009F0E5
:101170002EC1918111968C911197981709F021C178
:1011800026C1943009F420C19230B1F4823009F0C4
:101190001EC1CA01AF0128E0DA010D90AD01DC01EA
:1011A0000D92CD012150C1F7DB0111968C91119761
:1011B0009181892389830AC1823009F405C1C280E3
:1011C000D380DB0112966D907C901397248135813A
:1011D000468157811496ED90FD900D911C911797C3
:1011E000C601861997095C0197FF04C0AA24BB2495
:1011F000A81AB90AB0E2AB16B1040CF061C0181617
:1012000019066CF5370148010A2C04C0969487949E
:10121000779467940A94D2F781E090E0A0E0B0E080
:101220000A2C04C0880F991FAA1FBB1F0A94D2F76B
:101230000197A109B1098E219F21A023B123EE249A
:10124000FF248701E3940097A105B10519F4EE246A
:10125000FF248701E628F728082919293CC00097B0
:10126000D1F1CA0CDB1C39014A010A2C04C0969446
:101270008794779467940A94D2F781E090E0A0E095
:10128000B0E00A2C04C0880F991FAA1FBB1F0A9444
:10129000D2F70197A109B10982239323A423B5238F
:1012A00021E030E040E050E00097A105B10519F4DD
:1012B00020E030E0A90126293729482959290BC007
:1012C0006C147D0424F4EE24FF24870104C0630120
:1012D00020E030E0A9018181FB019181891709F4A7
:1012E00045C0882349F0D801C701821B930BA40B8A
:1012F000B50B9C01AD0104C02E193F09400B510BE9
:1013000057FD04C01982DB82CA820BC081E0898349
:10131000DB82CA8250954095309521953F4F4F4FC3
:101320005F4F2C833D834E835F830DC0880F991FD1
:10133000AA1FBB1F8C839D83AE83BF838A819B8141
:1013400001979B838A838C819D81AE81BF819C01A3
:10135000AD0121503040404050402F3FEFEF3E075D
:10136000EFEF4E07EFE35E0708F30BC08983DB82E4
:10137000CA822E0D3F1D401F511F2C833D834E837B
:101380005F8383E088832C813D814E815F8157FF9D
:101390001DC0DA01C90181709070A070B0705695BF
:1013A000479537952795822B932BA42BB52B8C83B0
:1013B0009D83AE83BF838A819B8101969B838A83B1
:1013C00005C0E1E0F2E003C0FB0101C0FE01CF0176
:1013D000CDB7DEB7EEE00C94A90EA0E2B0E0E3EFEB
:1013E000F9E00C94950E69837A838B839C832D831B
:1013F0003E834F83588789E0E82EF12CEC0EFD1ECA
:10140000CE010196B7010E94C70D8E010F5E1F4FDE
:10141000CE010596B8010E94C70DC701B801AE0103
:10142000475E5F4F0E94A3080E94F90CA096E6E079
:101430000C94B10EA0E2B0E0E0E2FAE00C94950E5C
:1014400069837A838B839C832D833E834F83588764
:101450008E01075F1F4FCE010196B8010E94C70D94
:1014600091E1E92EF12CEC0EFD1ECE010596B7019F
:101470000E94C70D8A8991E089278A8BC801B7012C
:10148000AE01475E5F4F0E94A3080E94F90CA09630
:10149000E6E00C94B10EA0E2B0E0E1E5FAE00C94D5
:1014A000890E69837A838B839C832D833E834F834C
:1014B0005887CE010196BE01675F7F4F0E94C70D1E
:1014C000CE010596BE016F5E7F4F0E94C70D9985C4
:1014D000923078F089898230C0F0943019F48230EB
:1014E00041F4CBC0843019F4923079F4C6C0923004
:1014F00051F481E02A859A89291709F480E08A87C6
:10150000CE010996BCC0823051F481E02A859A89C7
:10151000291709F480E08A8BCE014196B0C06D8412
:101520007E848F849888ED88FE880F89188DE0E28C
:10153000F0E080E090E0DC01AA24BB24650120E01B
:1015400030E0A901B3016170707061157105D1F0CF
:101550002E0D3F1D401F511F15012601280E391E5B
:101560004A1E5B1E81E090E0A0E0B0E02E153F0532
:101570004007510718F080E090E0DC01820D931DD8
:10158000A41DB51DAA0CBB1CCC1CDD1C17FF09C07B
:1015900061E0262E312C412C512CA228B328C428DE
:1015A000D528319749F0EE0CFF1C001F111F9694AF
:1015B000879477946794C6CF6B897C89EB85FC858B
:1015C0006E0F7F1F6E5F7F4F7C8F6B8F61E0EA85B0
:1015D0007A89E71709F460E06A8F6B8D7C8D10C003
:1015E000FC01E170F070309729F0569547953795DA
:1015F00027955068B695A795979587956F5F7F4F0C
:10160000B7FDEECF0CC0880F991FAA1FBB1F57FD57
:101610008160220F331F441F551F6150704080307E
:10162000E0E09E07E0E0AE07E0E4BE0760F36B8F0A
:101630007C8F6FE7E62EF12C012D112DE822F92287
:101640000A231B2360E4E616F1040105110561F489
:1016500087FD0AC0211531054105510529F0805C3F
:101660009F4FAF4FBF4F80788D8F9E8FAF8FB8A3A6
:1016700083E0898FCE01499602C081E092E00E940A
:10168000F90CA096E2E10C94A50EA8E1B0E0EBE421
:10169000FBE00C94950E69837A838B839C832D8366
:1016A0003E834F8358878E01075F1F4FCE010196FF
:1016B000B8010E94C70D81E1E82EF12CEC0EFD1E51
:1016C000CE010596B7010E94C70D8985823040F092
:1016D0008989823028F0C801B7010E94300E01C00C
:1016E0008FEF6896E6E00C94B10EA8E1B0E0EBE76E
:1016F000FBE00C94950E69837A838B839C832D8306
:101700003E834F8358878E01075F1F4FCE0101969E
:10171000B8010E94C70D81E1E82EF12CEC0EFD1EF0
:10172000CE010596B7010E94C70D8985823040F031
:101730008989823028F0C801B7010E94300E01C0AB
:101740008FEF6896E6E00C94B10EA8E1B0E0EBEA0A
:10175000FBE00C94950E69837A838B839C832D83A5
:101760003E834F8358878E01075F1F4FCE0101963E
:10177000B8010E94C70D81E1E82EF12CEC0EFD1E90
:10178000CE010596B7010E94C70D8985823040F0D1
:101790008989823028F0C801B7010E94300E01C04B
:1017A00081E06896E6E00C94B10EACE0B0E0EBEDC1
:1017B000FBE00C94990E69837A838B839C83CE0122
:1017C0000196BE016B5F7F4F0E94C70D8D818230F5
:1017D00081F1823070F1843021F48E81882369F1A7
:1017E0000AC02F81388537FD24C06E812F31310525
:1017F0003CF0662311F120E030E040E050E821C0E9
:101800008EE190E0821B930B29853A854B855C85A0
:1018100004C056954795379527958A95D2F7662344
:1018200081F050954095309521953F4F4F4F5F4F38
:1018300008C020E030E0A90104C02FEF3FEF4FEFD8
:101840005FE7B901CA012C96E2E00C94B50EA8E05E
:10185000B0E0EDE2FCE00C94930E7B018C011A8267
:10186000611571058105910519F482E089835FC0D6
:1018700083E089838EE1C82ED12CDC82CB82ED827D
:10188000FE820F831887C801B7010E949F0CFC01DC
:101890003197F7FF3AC0AA27BB27AE1BBF0B21E049
:1018A00030E040E050E00A2E04C0220F331F441FF6
:1018B000551F0A94D2F721503040404050402E210D
:1018C0003F214023512361E070E080E090E021154A
:1018D00031054105510519F460E070E0CB0104C009
:1018E00016950795F794E794AA95D2F7E62AF72A72
:1018F000082B192BED82FE820F8318878EE190E072
:101900008E1B9F0B9C838B8312C0309781F00E2E11
:1019100004C0EE0CFF1C001F111F0A94D2F7ED82C9
:10192000FE820F831887CE1ADF0ADC82CB82CE01BB
:1019300001960E94F90C2896E8E00C94AF0EAF9245
:10194000BF92CF92DF92EF92FF920F931F937B0192
:101950008C0180E0E81680E0F80681E0080780E06E
:10196000180758F4EFEFEE16F1040105110509F020
:1019700090F480E090E0DC0117C0F0E0EF16F0E0BA
:10198000FF06F0E00F07F1E01F0750F480E190E060
:10199000A0E0B0E009C088E090E0A0E0B0E004C0C2
:1019A00088E190E0A0E0B0E020E230E040E050E0EC
:1019B000281B390B4A0B5B0B5701680104C0D694F6
:1019C000C794B794A7948A95D2F7D601C501875FCB
:1019D0009D4FFC018081281B310941095109C90132
:1019E0001F910F91FF90EF90DF90CF90BF90AF903D
:1019F0000895EF92FF920F931F93CF93DF93FC0113
:101A0000248135814681578161818081823020F433
:101A10004061EFEFF0E0A3C0843009F49BC0823056
:101A200009F492C0211531054105510509F48FC013
:101A30000280F381E02D8FEFE238F8070CF05AC0F6
:101A4000C2E8DFEFCE1BDF0BCA31D1056CF579019F
:101A50008A010C2E04C016950795F794E7940A9412
:101A6000D2F781E090E0A0E0B0E00C2E04C0880F37
:101A7000991FAA1FBB1F0A94D2F70197A109B109A8
:101A800082239323A423B52321E030E040E050E0FB
:101A90000097A105B10519F420E030E0A9012E2935
:101AA0003F29402B512B03C020E030E0A901DA018F
:101AB000C9018F779070A070B07080349105A10536
:101AC000B10539F427FF09C0205C3F4F4F4F5F4FEE
:101AD00004C0215C3F4F4F4F5F4FE1E0F0E020300A
:101AE00080E0380780E0480780E4580728F5E0E008
:101AF000F0E022C0E038F1056CF5E158FF4FDA0163
:101B0000C9018F779070A070B07080349105A105E5
:101B1000B10539F427FF09C0205C3F4F4F4F5F4F9D
:101B200004C0215C3F4F4F4F5F4F57FF05C0569594
:101B3000479537952795319687E056954795379580
:101B400027958A95D1F70BC0E0E0F0E005C0E0E012
:101B5000F0E005C0EFEFF0E020E030E0A9018E2FCB
:101B6000879588278795942F9F7767956627679530
:101B7000E695E22EA92FA82BFE2FF62B622F732FAE
:101B80008A2F9F2FCDB7DEB7E6E00C94B10EDC01B3
:101B9000FB012C9111963C91119712968C91129702
:101BA000482F4F7750E0982F991F9927991F139628
:101BB0006C911397862F880F892B90E0661F6627FC
:101BC000661F6183009739F52115310541055105DF
:101BD00011F482E029C082E89FEF9383828367E05B
:101BE000220F331F441F551F6A95D1F783E080836E
:101BF00009C0220F331F441F551F82819381019713
:101C000093838283203080E0380780E0480780E4B7
:101C1000580778F320C08F3F910579F421153105DD
:101C20004105510519F484E08083089544FF03C001
:101C300081E0808310C010820EC08F579040938344
:101C4000828383E0808387E0220F331F441F551F68
:101C50008A95D1F75064248335834683578308954A
:101C6000FC01DB019081923008F449C08C918230F4
:101C700008F445C0943051F461818430B1F5119677
:101C80002C91119730E0261B310941C0843021F09E
:101C9000923041F48230B1F111968C9111978823E2
:101CA000A1F12DC06181823001F111968C911197C3
:101CB0006817D9F42281338112968D919C911397E4
:101CC0008217930794F028173907BCF024813581D7
:101CD0004681578114968D919D910D90BC91A02DB8
:101CE00082179307A407B50718F4662341F00DC0C7
:101CF000281739074A075B0728F4662331F021E0EB
:101D000030E005C020E030E002C02FEF3FEFC90116
:101D100008952F923F924F925F926F927F928F928F
:101D20009F92AF92BF92CF92DF92EF92FF920F936A
:101D30001F93CF93DF93CDB7DEB7CA1BDB0B0FB674
:101D4000F894DEBF0FBECDBF09942A883988488831
:101D50005F846E847D848C849B84AA84B984C884C7
:101D6000DF80EE80FD800C811B81AA81B981CE0FBE
:101D7000D11D0FB6F894DEBF0FBECDBFED010895A3
:101D8000A0E0B0E0E6ECFEE00C94990EFE01359682
:101D9000619171918091180590911905AF010E9490
:101DA000110F2096E2E00C94B50E60911805709129
:101DB00019050E940E110895EF92FF920F931F9341
:101DC000CF93DF938C01E0911805F0911905838181
:101DD00081FF1FC0C0E0D0E00AC0DB011896ED9182
:101DE000FC9119970995009711F0CFEFDFEFF801FB
:101DF00081918F016091180570911905882369F709
:101E0000DB011896ED91FC9119978AE009950097EE
:101E100011F0CFEFDFEFCE01CDB7DEB7E6E00C94E7
:101E2000B10EACE0B0E0E7E1FFE00C94890E6C018C
:101E30001B018A01FC0117821682838181FFD1C1B7
:101E40002E010894411C511CF6019381F10193FD70
:101E5000859193FF81911F01882309F4BEC18532CA
:101E600039F493FD859193FF81911F01853229F407
:101E700090E0B6010E940E11E7CFEE24FF2420E08F
:101E80002032B0F48B3269F08C3228F4803251F079
:101E9000833271F40BC08D3239F0803349F4216004
:101EA0002CC02260246029C0286027C0206125C082
:101EB00027FD2CC0382F30533A3098F426FF08C045
:101EC0008E2D880FE82EEE0CEE0CE80EE30E15C0FA
:101ED0008F2D880FF82EFF0CFF0CF80EF30E2062EA
:101EE0000CC08E3221F426FD78C1206406C08C36E9
:101EF00011F4206802C0883649F4F10193FD859100
:101F000093FF81911F01882309F0BACF982F955430
:101F1000933018F09052933028F40C5F1F4FFFE37A
:101F2000F9830DC0833631F0833771F0833509F0C2
:101F300060C022C0F801808189830E5F1F4F42017B
:101F400071E0A72EB12C16C062E0662E712C600ED7
:101F5000711EF8018080918026FF03C06E2D70E015
:101F600002C06FEF7FEFC4012C870E9403115C0158
:101F700083012C852F7717C052E0652E712C600EDF
:101F8000711EF8018080918026FF03C06E2D70E0E5
:101F900002C06FEF7FEFC4012C870E94F8105C0134
:101FA0002C852068830123FD20C008C080E290E0DA
:101FB000B6012C870E940E11FA942C858F2D90E08B
:101FC000A816B90698F311C0F40127FD859127FFE3
:101FD00081914F0190E0B6012C870E940E112C8553
:101FE000F110FA940894A108B108A114B10461F7A2
:101FF000F1C0843611F0893649F527FF08C0F80191
:1020000060817181828193810C5F1F4F09C0F8014B
:1020100060817181882777FD8095982F0E5F1F4F13
:102020004FE6B42EB22297FF09C090958095709527
:1020300061957F4F8F4F9F4FF0E8BF2AA2012AE0A2
:1020400030E00E943A11782E741845C0853731F47B
:102050003FEEB32EB2222AE030E025C099EFB92E30
:10206000B2228F36C1F0803720F4883509F0B5C030
:102070000DC0803721F0883709F0AFC002C020E1E1
:10208000B22AB4FE0BC084E0B82A08C0B4FE09C06E
:10209000E6E0BE2A06C028E030E005C020E130E0DE
:1020A00002C020E132E0B7FE08C0F8016081718112
:1020B000828193810C5F1F4F07C0F801608171819D
:1020C00080E090E00E5F1F4FA2010E943A11782E2F
:1020D0007418FFE7BF22B6FE0BC02EEFB2227E14AB
:1020E00038F4B4FE07C0B2FC05C08FEEB82202C0BF
:1020F000A72C01C0AE2C8B2D90E0B4FE0DC0FE01CC
:10210000E70DF11D2081203319F4E9EEBE2209C04C
:10211000A394B2FE06C004C086789070009709F0C0
:10212000A3948B2C9924B3FC14C0B0FE0FC0AF1441
:1021300028F4E72CEF0CEA18AF2C08C0E72C06C0F7
:1021400080E290E0B6010E940E11A394AF14C0F398
:1021500004C0AF1410F4FA1801C0FF2484FE0FC0AD
:1021600080E390E0B6010E940E1182FE1FC081FE46
:1021700003C088E590E010C088E790E00DC0C4017E
:1021800086789070009791F081FC02C080E201C0D7
:102190008BE2B7FC8DE290E0B6010E940E1106C002
:1021A00080E390E0B6010E940E11EA947E14C0F321
:1021B0007A94F201E70DF11D808190E0B6010E9452
:1021C0000E117720A9F706C080E290E0B6010E94C8
:1021D0000E11FA94FF20C1F737CEF6012681378120
:1021E00002C02FEF3FEFC9012C96E2E10C94A50E3F
:1021F000FC010590615070400110D8F780959095D2
:102200008E0F9F1F0895FC016150704001900110D6
:10221000D8F7809590958E0F9F1F08950F931F9369
:10222000CF93DF938C01EB018B8181FF1BC082FF79
:102230000DC02E813F818C819D812817390764F460
:10224000E881F9810193F983E88306C0E885F9857F
:10225000802F0995009731F48E819F8101969F838D
:102260008E8302C00FEF1FEFC801DF91CF911F9146
:102270000F910895FA01AA27283051F1203181F1F8
:10228000E8946F936E7F6E5F7F4F8F4F9F4FAF4F7E
:10229000B1E03ED0B4E03CD0670F781F891F9A1F91
:1022A000A11D680F791F8A1F911DA11D6A0F711D45
:1022B000811D911DA11D20D009F468943F912AE051
:1022C000269F11243019305D3193DEF6CF01089539
:1022D000462F4770405D4193B3E00FD0C9F7F6CF6A
:1022E000462F4F70405D4A3318F0495D31FD405232
:1022F000419302D0A9F7EACFB4E0A69597958795C8
:1023000077956795BA95C9F70097610571050895A6
:102310009B01AC010A2E0694579547953795279552
:10232000BA95C9F7620F731F841F951FA01D0895EA
:04233000F894FFCF4F
:102334000000000200000000FE0600000000AAAA3F
:10234400BBBBCCCC426174743A2025750A00536C33
:10235400656570204D6F646521000A0A53706C61D5
:102364007368204C6F676765720A00446576696319
:102374006520494420436865636B3A20004F4B0055
:102384004641494C4544210073697A656F66287358
:10239400616D706C65293D20256409006164647277
:1023A4006573733A202570090056616C7565733A3C
:1023B4002025582C2025582C2025580A00456C65CA
:1023C4006D656E74733A200025582C20005B5761AC
:1023D4007465726D61726B5D00257509005B312057
:1023E4005461705D005B32205461705D005B416339
:1023F4007469766974795D005B496E4163746976CA
:10240400655D005B4672656566616C6C5D000D0020
:1024140025692C0925692C0925690900B0000000EB
:102424003050F0080405FF08140F000F200083004B
:102434000B0000000000000000000102020303037F
:102444000304040404040404040505050505050542
:102454000505050505050505050606060606060621
:102464000606060606060606060606060606060608
:1024740006060606060606060607070707070707F1
:1024840007070707070707070707070707070707D8
:1024940007070707070707070707070707070707C8
:1024A40007070707070707070707070707070707B8
:1024B40007070707070707070708080808080808A1
:1024C4000808080808080808080808080808080888
:1024D4000808080808080808080808080808080878
:1024E4000808080808080808080808080808080868
:1024F4000808080808080808080808080808080858
:102504000808080808080808080808080808080847
:102514000808080808080808080808080808080837
:102524000808080808080808080808080808080827
:0A2534000808080808080808080055
:00000001FF
