:100000000C9434000C9451000C9451000C94510049
:100010000C9451000C9451000C9451000C9451001C
:100020000C9451000C9451000C9451000C9451000C
:100030000C9451000C9451000C9451000C945100FC
:100040000C9451000C9451000C9485070C945100B1
:100050000C9451000C9451000C9451000C945100DC
:100060000C9451000C94510011241FBECFEFD8E026
:10007000DEBFCDBF12E0A0E0B1E0E2E0F9E102C0F6
:1000800005900D92A63BB107D9F714E0A6EBB2E0BC
:1000900001C01D92A53FB107E1F70E9480070C94B3
:1000A0007F0C0C94000060E072EF28987EBD0DB4C8
:1000B00007FEFDCF2EB5FC01E151FD4F9C01AC01C7
:1000C0004A5F5F4F82E02030380758F41EBC0DB401
:1000D00007FEFDCF8EB581932F5F3F4F2417350765
:1000E00089F7289A6F5F693111F0C901DECFC90124
:1000F0000895DF93CF93CDB7DEB765970FB6F89429
:10010000DEBF0FBECDBFDE011196E3E9F2E085E16F
:1001100001900D928150E1F728988DE58EBD0DB4C8
:1001200007FEFDCF8EB5FE0131969E012A5E3F4F40
:1001300080818EBD0DB407FEFDCF8EB53196E217DE
:10014000F307B1F7289A80EA9FE00197F1F7289822
:1001500088E38EBD0DB407FEFDCF8EB587E98EBD59
:100160000DB407FEFDCF8EB5289A81E08093B602CC
:1001700065960FB6F894DEBF0FBECDBFCF91DF916D
:1001800008951F93182F8091B602882311F40E94BE
:10019000790012501230A0F428988DE68EBD0DB46F
:1001A00007FEFDCF8EB588E28EBD0DB407FEFDCFF4
:1001B0008EB58EE18EBD0DB407FEFDCF8EB5289AAB
:1001C0001F9108952A98882311F083ED01C081EDD5
:1001D0008EBD0DB407FEFDCF8EB51EBC0DB407FE5F
:1001E000FDCF8EB51EBC0DB407FEFDCF8EB51EBC77
:1001F0000DB407FEFDCF8EB520E030E01EBC0DB47F
:1002000007FEFDCF8EB5FB01E20FF31F80832F5F4A
:100210003F4F82E02030380789F72A9A08959C01E1
:100220002A9883E08EBD0DB407FEFDCF8EB5C901BF
:1002300036E0969587953A95E1F78EBD0DB407FEA9
:10024000FDCF8EB5822F880F880F8EBD0DB407FEAF
:10025000FDCF8EB51EBC0DB407FEFDCF8EB520E0E0
:1002600030E01EBC0DB407FEFDCF8EB5FB01E20FE2
:10027000F31F80832F5F3F4F82E02030380789F7DC
:100280002A9A08959C012A9883E08EBD0DB407FE3A
:10029000FDCF8EB5C90146E0969587954A95E1F761
:1002A0008EBD0DB407FEFDCF8EB5822F880F880F4F
:1002B000872B8EBD0DB407FEFDCF8EB56EBD0DB480
:1002C00007FEFDCF8EB51EBC0DB407FEFDCF8EB56B
:1002D0002A9A0895DC012A98662311F087E801C064
:1002E00084E88EBD0DB407FEFDCF8EB51EBC0DB4E7
:1002F00007FEFDCF8EB51EBC0DB407FEFDCF8EB53B
:100300001EBC0DB407FEFDCF8EB520E030E0FA0133
:10031000E20FF31F80818EBD0DB407FEFDCF8EB5B9
:100320002F5F3F4F82E02030380789F72A9A2A9AB8
:100330002A9A2A98662311F089E801C088E88EBDC0
:100340000DB407FEFDCF8EB5CD0156E0969587958D
:100350005A95E1F78EBD0DB407FEFDCF8EB58A2FFD
:10036000880F880F8EBD0DB407FEFDCF8EB51EBC65
:100370000DB407FEFDCF8EB52A9A0895282F2A982E
:1003800082E88EBD0DB407FEFDCF8EB51EBC0DB448
:1003900007FEFDCF8EB51EBC0DB407FEFDCF8EB59A
:1003A0001EBC0DB407FEFDCF8EB580E090E02EBDE3
:1003B0000DB407FEFDCF3EB5019632E080309307C5
:1003C000B1F72A9A08959C012A9880E58EBD0DB454
:1003D00007FEFDCF8EB5C90163E0969587956A95B6
:1003E000E1F78EBD0DB407FEFDCF8EB5822F82954D
:1003F000880F807E8EBD0DB407FEFDCF8EB51EBC6E
:100400000DB407FEFDCF8EB52A9A08952A9887ED80
:100410008EBD0DB407FEFDCF8EB51EBC0DB407FE1C
:10042000FDCF8EB52A9A880F880B809508950F937B
:100430001F93CF93DF9390E074E0880F991F7A9514
:10044000E1F7EC0121968C010F5E1F4FCE010E9457
:10045000E3010E9406028823E1F72196C017D10725
:10046000A9F7DF91CF911F910F910895882339F457
:100470002A9889EB8EBD0DB407FEFDCF06C02A98E1
:100480008BEA8EBD0DB407FEFDCF8EB52A9A089576
:10049000806480937C0080917A00806480937A00ED
:1004A00080917A0086FDFCCF909178008091790050
:1004B000382F20E0290F311DC90108958EE00E94D8
:1004C00048029C01220F331F309521953F4FAC010C
:1004D0005695479556954795241B350B27513B4E0E
:1004E000880F991F880F991F281B390BC901089580
:1004F0008EBD0DB407FEFDCF8EB50895982F84EA0A
:100500008093BC008091BC0087FFFCCF6170990F85
:10051000962B9093BB0084E88093BC008091BC0034
:1005200087FFFCCF0895823000F588E660E00E94E6
:100530007E028EE38093BB0084E88093BC008091B0
:10054000BC0087FFFCCF80E48093BB0084E88093ED
:10055000BC008091BC0087FFFCCF84E98093BC0085
:100560008091BC0084FDFCCF089588E660E00E9485
:100570007E028EE38093BB0084E88093BC00809170
:10058000BC0087FFFCCF81E08093BB0084E88093B0
:10059000BC008091BC0087FFFCCF84E98093BC0045
:1005A0008091BC0084FDFCCF80EA9FE00197F1F7C9
:1005B00088E660E00E947E0285E18093BB0084E8CB
:1005C0008093BC008091BC0087FFFCCF1092BB00E1
:1005D00084E88093BC008091BC0087FFFCCF88E159
:1005E0008093BB0084E88093BC008091BC0087FFAF
:1005F000FCCF84E98093BC008091BC0084FDFCCFDB
:100600000895CF93DF93EC0188E660E00E947E02BC
:100610008DE18093BB0084E88093BC008091BC0096
:1006200087FFFCCF84E98093BC008091BC0084FDEF
:10063000FCCF88E661E00E947E02FE01E754FD4F98
:1006400020E0C633D105C8F480E090E0253010F4F6
:1006500081E090E0B6E0880F991FBA95E1F78468D1
:100660008093BC008091BC0087FFFCCF8091BB00D1
:10067000819321962F5F263021F784E98093BC0077
:100680008091BC0084FDFCCFCE01DF91CF91089515
:100690007F928F929F92AF92BF92CF92DF92EF9212
:1006A000FF920F931F93CF93DF93289889EB8EBD12
:1006B0000DB407FEFDCF8EB51EBC0DB407FEFDCFF9
:1006C0008EB5289A92EB0DC028989EBD0DB407FEFA
:1006D000FDCF2EB51EBC0DB407FEFDCF2EB5289A5A
:1006E00081508A3188F78091B702E82EFF24F69472
:1006F000FE2CEE24F794E79488E090E0E80EF91ED3
:100700001092850010928400CC24DD24BB2419EBC8
:10071000712E299A8090840090908500BB2011F062
:1007200000E001C00CE0C0E0D0E0AA2442C080910B
:100730008400909185008C199D09883A910560F09C
:10074000123050F4C0908400D09085001F5F802F3D
:1007500090E00E940103082F4A9BE9CF28987EBCB5
:100760000DB407FEFDCF8EB51EBC0DB407FEFDCF48
:100770008EB5289ACE010E945300EC014A99FECF13
:1007800028987EBC0DB407FEFDCF8EB51EBC0DB4FF
:1007900007FEFDCF8EB5289AC0908400D0908500CA
:1007A000802F90E00E940103A39493E0A91619F012
:1007B000082F10E0D1CFE9EBF2E0DE01A151BD4FEF
:1007C00081918D9382E0EF3EF807D1F7CE01C69676
:1007D0009092E7048092E804209184003091850093
:1007E0003093E9042093EA049093EB048093EC04A3
:1007F00029986B2D6170C7018B0D911D4FEE52E052
:100800000E946A01B39490E8B91609F082CF0E9461
:1008100006028823E1F78091B7028E3110F080E064
:1008200001C08F5F8093B7020E9417028091B702C8
:100830000E94BE010E9406028823E1F7DF91CF915A
:100840001F910F91FF90EF90DF90CF90BF90AF90EE
:100850009F908F907F9008954B9B21C0299A289854
:1008600080EB8EBD0DB407FEFDCF8EB51EBC0DB462
:1008700007FEFDCF8EB5289A83FF02C01092B80202
:1008800082FF09C08091B802882311F40E944803B6
:1008900081E08093B80280E29EE40197F1F7299805
:1008A000089584E98093BC008091BC0084FDFCCF56
:1008B00008958093BB0084E88093BC008091BC00C5
:1008C00087FFFCCF08958295880F880F807C84680D
:1008D0008093BC008091BC0087FFFCCF8091BB005F
:1008E00008951F93182F8A3019F48DE00E94710427
:1008F0008091C00085FFFCCF1093C60080E090E09F
:100900001F9108958091C00087FFFCCF8091C600A1
:1009100008952F923F924F925F926F927F928F92A3
:100920009F92AF92BF92CF92DF92EF92FF920F937E
:100930001F93DF93CF930F92CDB7DEB78983262E17
:10094000332444245524642E77248824992483C096
:10095000299AC201B1010E9461085B016C0120E08B
:1009600030E04AE755E40E94EF087B018C0120E06B
:1009700030E040E85FE30E94310888231CF461E026
:1009800070E023C0C801B70120E03FEF4FE757E414
:100990000E94EB081816ACF4C601B50120E030E067
:1009A00040E251E40E94EF080E94350806C080E949
:1009B00091E00197F1F76150704061157105B9F749
:1009C00007C0C801B7010E943508CB010197F1F7B4
:1009D0002998C401B3010E9461085B016C0120E009
:1009E00030E04AE755E40E94EF087B018C0120E0EB
:1009F00030E040E85FE30E94310888231CF461E0A6
:100A000070E023C0C801B70120E03FEF4FE757E493
:100A10000E94EB081816ACF4C601B50120E030E0E6
:100A200040E251E40E94EF080E94350806C080E9C8
:100A300091E00197F1F76150704061157105B9F7C8
:100A400007C0C801B7010E943508CB010197F1F733
:100A5000898181508983E981EE2309F079CF0F9054
:100A6000CF91DF911F910F91FF90EF90DF90CF908A
:100A7000BF90AF909F908F907F906F905F904F90BE
:100A80003F902F9008950F931F93CF93DF93289853
:100A900080E88EBD0DB407FEFDCF8EB51EBC0DB433
:100AA00007FEFDCF0EB5289A2A988BEA8EBD0DB4AD
:100AB00007FEFDCF8EB52A9A80EA9FE00197F1F7F5
:100AC0002A988FE98EBD0DB407FEFDCF8EB51EBCF2
:100AD0000DB407FEFDCF8EB51EBC0DB407FEFDCFD5
:100AE0001EB52A9A82E00E94930288E660E00E9486
:100AF0007E021092BB0084E88093BC008091BC0011
:100B000087FFFCCF84E98093BC008091BC0084FD0A
:100B1000FCCF88E661E00E947E0284E88093BC00FE
:100B20008091BC0087FFFCCF9091BB0084E980934B
:100B3000BC008091BC0084FDFCCFC92FD0E08DB7F4
:100B40009EB708970FB6F8949EBF0FBE8DBFEDB746
:100B5000FEB7319680E091E0ADB7BEB712969C9398
:100B60008E9311970283138214831582D783C683D1
:100B70000E947A098DB79EB708960FB6F8949EBF6B
:100B80000FBE8DBF053E51F4163241F480E0CE77A2
:100B9000D070C836D10519F481E001C080E0DF9142
:100BA000CF911F910F9108953F924F925F926F9254
:100BB0007F928F929F92AF92BF92CF92DF92EF92ED
:100BC000FF920F931F93DF93CF9300D000D0CDB748
:100BD000DEB78F3108F0DBC0C82EDD24D694DC2CC4
:100BE000CC24D794C79428E030E0C20ED31E33241F
:100BF000C601830D911D6FEE72E00E940F0180E02F
:100C000090E04AC000D0EEE1F1E0ADB7BEB7129679
:100C1000FC93EE9311970E947A090B811C8101517C
:100C20001D4F1A820F900F9000D000D0E2E2F1E049
:100C3000ADB7BEB71296FC93EE931197D8011196FB
:100C40009C90119788248C9190E088299929EDB780
:100C5000FEB7948383830E947A09FA81FE5FFA8348
:100C60000E5F1F4F0F900F900F900F90F630E1F630
:100C70002B813C812A5F3F4F3C832B838AE090E0AD
:100C80000E948F098B819C818415950509F0BACF4C
:100C9000A1E0823C9A0741F09C838B8326E9422E97
:100CA000512C480E591EAECF00D026E231E0EDB7F0
:100CB000FEB7328321830E947A090B811C81015186
:100CC0001D4F19820F900F9000D000D0E2E2F1E0AA
:100CD000ADB7BEB71296FC93EE931197D8017C90F6
:100CE000662411968C9190E086299729EDB7FEB77E
:100CF000948383830E947A09F981FE5FF9830E5FF2
:100D00001F4F0F900F900F900F90F630E9F68AE08A
:100D100090E00E948F092B813C8181E0223F3807BF
:100D200029F02A5F3F4F3C832B83BECF00D000D0F9
:100D300000D0EDB7FEB731962AE231E0ADB7BEB7CD
:100D400012963C932E931197B090E704AA248091B9
:100D5000E804D501A80FB11DB383A283F090E90484
:100D6000EE248091EA049701280F311D35832483F6
:100D70000E947A0933948DB79EB706960FB6F89401
:100D80009EBF0FBE8DBF90E8391609F031CF0F908E
:100D90000F900F900F90CF91DF911F910F91FF90C7
:100DA000EF90DF90CF90BF90AF909F908F907F900B
:100DB0006F905F904F903F90089585B7806185BF99
:100DC0001092800084E08093810084B18F6084B9A8
:100DD00087B187B9519A85B1876285B91092C500EC
:100DE00088E08093C40088E98093C10088EA92E09B
:100DF0009093F2048093F1048CE58CBD84E480939D
:100E0000BC008091B9008C7F8093B9008CE0809306
:100E1000B80080E480937C0086E880937A008FE3BA
:100E200080937E0084E391E00E94960984E16AE069
:100E300048E20E94890400D086E591E0EDB7FEB754
:100E4000928381830E947A090F900F900E9443053C
:100E50008823A9F188E691E00E9496090E94790012
:100E600082E00E94C10082E00E949302EFEEF2E075
:100E70008AE2819394E0EE3EF907D9F78AE0808315
:100E800080E090E060E070E00E9442018093B70251
:100E900000D000D02BE631E0EDB7FEB732832183DE
:100EA00090E00196948383830E947A090F900F90BB
:100EB0000F900F908091B7028E31C0F00AC081E888
:100EC00091E00E9496098AE06EE14EE10E94890459
:100ED000089589E891E00E9496091092B70280E097
:100EE0000E94BE010E9406028823E1F78091B702AA
:100EF0000E94170282EB91E00E949609789408956F
:100F00000E94DD060E942C04FDCF1F920F920FB6A7
:100F10000F9211242F933F934F935F936F937F937F
:100F20008F939F93AF93BF93EF93FF938091C600EE
:100F30008434D1F0853478F48F3309F465C080347B
:100F400030F48B32B1F08D3209F07AC01BC082349C
:100F500009F076C03DC0823549F1843509F443C0BB
:100F60008E3409F06DC045C08091B7020E94D4054F
:100F700067C08091B7028E3110F02EE10BC0282F90
:100F80002F5F08C08091B702882311F420E002C0CF
:100F9000282F21502093B70200D000D086E292E0A3
:100FA000EDB7FEB792838183822F40C01092B702C3
:100FB00080E00E9417028091B7020E94BE010E9449
:100FC00006028823E1F781E392E00E94960938C087
:100FD0000E945E0200D000D022E432E0EDB7FEB7FE
:100FE0003283218325C08FE492E00E9496090E94FB
:100FF000480300D000D086E292E0EDB7FEB79283BE
:1010000081838091B70212C082EB91E00E94960921
:1010100080E090E060E070E00E94420100D000D0EB
:101020002BE632E0EDB7FEB73283218390E00196E4
:10103000948383830E947A090F900F900F900F90F2
:10104000FF91EF91BF91AF919F918F917F916F91A0
:101050005F914F913F912F910F900FBE0F901F9076
:1010600018956CD008F481E0089594D088F09F57CB
:1010700090F0B92F9927B751A0F0D1F0660F771FE4
:10108000881F991F1AF0BA95C9F712C0B13081F0C4
:101090009BD0B1E0089598C0672F782F8827B85F5C
:1010A00039F0B93FCCF3869577956795B395D9F725
:1010B0003EF490958095709561957F4F8F4F9F4F2F
:1010C0000895E89409C097FB3EF49095809570953B
:1010D00061957F4F8F4F9F4F9923A9F0F92F96E984
:1010E000BB279395F695879577956795B795F111F9
:1010F000F8CFFAF4BB0F11F460FF1BC06F5F7F4F96
:101100008F4F9F4F16C0882311F096E911C07723A7
:1011100021F09EE8872F762F05C0662371F096E8B0
:10112000862F70E060E02AF09A95660F771F881F7F
:10113000DAF7880F9695879597F90895990F000823
:10114000550FAA0BE0E8FEEF16161706E807F90799
:10115000C0F012161306E407F50798F0621B730B34
:10116000840B950B39F40A2661F0232B242B252BB5
:1011700021F408950A2609F4A140A6958FEF811D58
:10118000811D089557FD9058440F551F59F05F3F3A
:1011900071F04795880F97FB991F61F09F3F79F099
:1011A00087950895121613061406551FF2CF46951B
:1011B000F1DF08C0161617061806991FF1CF86959D
:1011C0007105610508940895E894BB276627772781
:1011D000CB0197F90895B2DF08F48FEF08950BD093
:1011E00078C069D028F06ED018F0952309F05AC065
:1011F0005FC01124EACFC6DFA0F3959FD1F3950F0E
:1012000050E0551F629FF001729FBB27F00DB11D8A
:10121000639FAA27F00DB11DAA1F649F6627B00D1A
:10122000A11D661F829F2227B00DA11D621F739F03
:10123000B00DA11D621F839FA00D611D221F749F11
:101240003327A00D611D231F849F600D211D822F58
:10125000762F6A2F11249F5750408AF0E1F088239F
:101260004AF0EE0FFF1FBB1F661F771F881F9150AC
:101270005040A9F79E3F510570F014C0A6CF5F3FC4
:10128000ECF3983EDCF3869577956795B795F795DF
:10129000E7959F5FC1F7FE2B880F911D9695879567
:1012A00097F9089597F99F6780E870E060E00895E6
:1012B0009FEF80EC089500240A941616170618066E
:1012C0000906089500240A9412161306140605064A
:1012D0000895092E0394000C11F4882352F0BB0FDB
:1012E00040F4BF2B11F460FF04C06F5F7F4F8F4F3E
:1012F0009F4F0895A0E0B0E0E0E8F9E00C94580CAE
:10130000FE013596619171918091F1049091F20402
:10131000AF010E94CB092096E2E00C94740C60911E
:10132000F1047091F2040E94BE0B08950F931F9375
:10133000CF93DF938C01E091F104F091F20483816B
:1013400081FF21C0C0E0D0E00DC0E091F104F09138
:10135000F20420853185BF01F9010995892B11F02F
:10136000CFEFDFEFF80181918F01882371F7E091D2
:10137000F104F091F204208531858AE0BF01F90182
:101380000995892B11F0CFEFDFEFCE01DF91CF91DF
:101390001F910F910895ABE0B0E0E1EDF9E00C94FE
:1013A000480C3C012B015A01FC01178216828381F3
:1013B00081FD03C06FEF7FEFC6C19AE0892E1E0149
:1013C0000894211C311CF3012381F20123FD859136
:1013D00023FF81912F01882309F4B2C1853239F4AA
:1013E00023FD859123FF81912F01853229F490E01F
:1013F000B3010E94BE0BE7CF982FFF24EE2499245F
:10140000FFE1FF15D0F09B3269F09C3228F4903256
:1014100059F0933291F40EC09D3249F0903369F443
:1014200041E024C052E0F52A84E0F82A28C098E080
:10143000F92A25C0E0E1FE2A22C0F7FC29C0892F45
:1014400080538A3070F4F6FE05C0989C902C1124CD
:10145000980E15C0E89CE02C1124E80EF0E2FF2A5B
:101460000EC09E3229F4F6FC6BC140E4F42A07C09A
:101470009C3619F450E8F52A02C0983649F4F20176
:1014800023FD959123FF91912F01992309F0B8CF66
:10149000892F8554833018F08052833038F444E02B
:1014A00050E0A40EB51E5FE359830FC0933631F0B0
:1014B000933779F0933509F056C020C0F50180814B
:1014C000898342E050E0A40EB51E610101E010E006
:1014D00012C0F501C080D180F6FC03C06FEF7FEF32
:1014E00002C0692D70E042E050E0A40EB51EC601B6
:1014F0000E94B30B8C015FE7F52214C0F501C08098
:10150000D180F6FC03C06FEF7FEF02C0692D70E061
:1015100042E050E0A40EB51EC6010E94A80B8C014B
:1015200050E8F52AF3FE07C01AC080E290E0B3014C
:101530000E94BE0BEA948E2D90E008171907A8F3BD
:101540000EC0F601F7FC8591F7FE81916F0190E0E6
:10155000B3010E94BE0BE110EA9401501040011546
:10156000110579F7EAC0943611F0993669F5F7FE5E
:1015700008C0F501208131814281538184E090E0EF
:101580000AC0F501808191819C01442737FD409577
:10159000542F82E090E0A80EB91E9FE6F92257FF73
:1015A00009C050954095309521953F4F4F4F5F4F63
:1015B000E0E8FE2ACA01B901A1012AE030E00E9458
:1015C000EA0BD82ED21840C0953729F41F2D1F7E64
:1015D0002AE030E01DC01F2D197F9F3661F0903743
:1015E00020F4983509F0ACC00FC0903739F0983727
:1015F00009F0A6C004C028E030E00AC0106114FD64
:10160000146020E130E004C014FD166020E132E0F7
:1016100017FF08C0F501608171818281938144E0E8
:1016200050E008C0F50180819181BC0180E090E02C
:1016300042E050E0A40EB51EA1010E94EA0BD82E94
:10164000D2188FE7F82EF122F6FE0BC05EEFF522DE
:10165000D91438F4F4FE07C0F2FC05C08FEEF8226E
:1016600002C01D2D01C0192DF4FE0DC0FE01ED0DAF
:10167000F11D8081803319F499EEF92208C01F5FB3
:10168000F2FE05C003C08F2D867809F01F5F0F2D75
:10169000F3FC14C0F0FE0FC01E1510F09D2C0BC003
:1016A0009D2C9E0C911A1E2D06C080E290E0B30185
:1016B0000E94BE0B1F5F1E15C0F304C01E1510F460
:1016C000E11A01C0EE2404FF0FC080E390E0B301F3
:1016D0000E94BE0B02FF1DC001FD03C088E790E021
:1016E0000EC088E590E00BC0802F867891F001FF56
:1016F00002C08BE201C080E2F7FC8DE290E0B30112
:101700000E94BE0B06C080E390E0B3010E94BE0BB6
:101710009A94D914C0F3DA94F101ED0DF11D808192
:1017200090E0B3010E94BE0BDD20A9F706C080E265
:1017300090E0B3010E94BE0BEA94EE20C1F743CEC5
:10174000F30166817781CB012B96E2E10C94640C66
:10175000FC010590615070400110D8F7809590957C
:101760008E0F9F1F0895FC01615070400190011081
:10177000D8F7809590958E0F9F1F08950F931F9314
:10178000CF93DF938C01EB018B8181FF1BC082FF24
:101790000DC02E813F818C819D812817390764F40B
:1017A000E881F9810193F983E88306C0E885F9852A
:1017B000802F0995892B31F48E819F8101969F831B
:1017C0008E8302C00FEF1FEFC801DF91CF911F91F1
:1017D0000F910895FA01AA27283051F1203181F1A3
:1017E000E8946F936E7F6E5F7F4F8F4F9F4FAF4F29
:1017F000B1E03ED0B4E03CD0670F781F891F9A1F3C
:10180000A11D680F791F8A1F911DA11D6A0F711DEF
:10181000811D911DA11D20D009F468943F912AE0FB
:10182000269F11243019305D3193DEF6CF010895E3
:10183000462F4770405D4193B3E00FD0C9F7F6CF14
:10184000462F4F70405D4A3318F0495D31FD4052DC
:10185000419302D0A9F7EACFB4E0A6959795879572
:1018600077956795BA95C9F7009761057105089551
:101870009B01AC010A2E06945795479537952795FD
:10188000BA95C9F7620F731F841F951FA01D089595
:101890002F923F924F925F926F927F928F929F9280
:1018A000AF92BF92CF92DF92EF92FF920F931F936E
:1018B000CF93DF93CDB7DEB7CA1BDB0B0FB6F8941F
:1018C000DEBF0FBECDBF09942A88398848885F845F
:1018D0006E847D848C849B84AA84B984C884DF80D0
:1018E000EE80FD800C811B81AA81B981CE0FD11DB4
:1018F0000FB6F894DEBF0FBECDBFED010895F8948A
:02190000FFCF17
:10190200416363656C3A20255809466C6173683AF5
:10191200202558094779726F3A2025580A005F41FD
:101922000900256409005F4709005F54092575090C
:1019320025750A000A0A4259552053706C61736872
:10194200204C6F6767657220646576204A756C79F2
:10195200323031320A004465766963652049442099
:10196200436865636B3A20004F4B00496D70656EAA
:1019720064696E67205465737420233A2025750AC2
:10198200004641494C45442100466C617368204D34
:10199200656D6F72792046756C6C2C20526573658B
:1019A2007474696E672054657374202320746F20E9
:1019B20031000A436F6E736F6C6520557365616702
:1019C200653A0A2B2F2D09496E632F446563230A5A
:1019D200440944756D700A52095265736574205446
:1019E200657374233D310A420942617474657279E8
:1019F200206D560A4E0943757272656E74205465E5
:101A02007374230A5409466F7263652054726967BE
:101A12006765720A3F09436F6E736F6C6520557379
:101A2200656167650A0054657374233A2025750A57
:101A320000546573742320526573657420746F209B
:101A42003100426174746572793A2025750A004644
:101A52006F7263656420547269676765722C2053E4
:101A6200616D706C696E672E2E2E00496D70656E09
:101A720064696E67205465737423202853746F72EF
:101A8200656420696E20466C617368293A20257569
:101A92000A0A00B00000003050F0080405FF0814E4
:101AA2000F000F200083000B000000020000000066
:061AB200710400000000B9
:00000001FF
