:100000000C9434000C9451000C9451000C94510049
:100010000C9451000C9451000C9451000C9451001C
:100020000C9451000C9451000C9451000C9451000C
:100030000C9451000C9451000C9451000C945100FC
:100040000C9451000C9451000C94B6070C94510080
:100050000C9451000C9451000C9451000C945100DC
:100060000C9451000C94510011241FBECFEFD8E026
:10007000DEBFCDBF13E0A0E0B1E0E8E8F9E102C0E7
:1000800005900D92AA34B107D9F715E0AAE4B3E0C0
:1000900001C01D92A938B107E1F70E94B1070C9485
:1000A000C20C0C94000060E072EF28987EBD0DB485
:1000B00007FEFDCF2EB5FC01ED57FC4F9C01AC01B6
:1000C0004A5F5F4F82E02030380758F41EBC0DB401
:1000D00007FEFDCF8EB581932F5F3F4F2417350765
:1000E00089F7289A6F5F693111F0C901DECFC90124
:1000F0000895DF93CF93CDB7DEB765970FB6F89429
:10010000DEBF0FBECDBFDE011196E6E2F3E085E172
:1001100001900D928150E1F728988DE58EBD0DB4C8
:1001200007FEFDCF8EB5FE0131969E012A5E3F4F40
:1001300080818EBD0DB407FEFDCF8EB53196E217DE
:10014000F307B1F7289A80EA9FE00197F1F7289822
:1001500088E38EBD0DB407FEFDCF8EB587E98EBD59
:100160000DB407FEFDCF8EB5289A81E080934A0337
:1001700065960FB6F894DEBF0FBECDBFCF91DF916D
:1001800008951F93182F80914A03882311F40E9429
:10019000790012501230A0F428988DE68EBD0DB46F
:1001A00007FEFDCF8EB588E28EBD0DB407FEFDCFF4
:1001B0008EB58EE18EBD0DB407FEFDCF8EB5289AAB
:1001C0001F9108952A98882311F083ED01C081EDD5
:1001D0008EBD0DB407FEFDCF8EB51EBC0DB407FE5F
:1001E000FDCF8EB51EBC0DB407FEFDCF8EB51EBC77
:1001F0000DB407FEFDCF8EB520E030E01EBC0DB47F
:1002000007FEFDCF8EB5FB01E20FF31F80832F5F4A
:100210003F4F82E02030380789F72A9A08959C01E1
:100220002A9883E08EBD0DB407FEFDCF8EB5C901BF
:1002300036E0969587953A95E1F78EBD0DB407FEA9
:10024000FDCF8EB5822F880F880F8EBD0DB407FEAF
:10025000FDCF8EB51EBC0DB407FEFDCF8EB520E0E0
:1002600030E01EBC0DB407FEFDCF8EB5FB01E20FE2
:10027000F31F80832F5F3F4F82E02030380789F7DC
:100280002A9A08959C012A9883E08EBD0DB407FE3A
:10029000FDCF8EB5C90146E0969587954A95E1F761
:1002A0008EBD0DB407FEFDCF8EB5822F880F880F4F
:1002B000872B8EBD0DB407FEFDCF8EB56EBD0DB480
:1002C00007FEFDCF8EB51EBC0DB407FEFDCF8EB56B
:1002D0002A9A0895DC012A98662311F087E801C064
:1002E00084E88EBD0DB407FEFDCF8EB51EBC0DB4E7
:1002F00007FEFDCF8EB51EBC0DB407FEFDCF8EB53B
:100300001EBC0DB407FEFDCF8EB520E030E0FA0133
:10031000E20FF31F80818EBD0DB407FEFDCF8EB5B9
:100320002F5F3F4F82E02030380789F72A9A2A9AB8
:100330002A9A2A98662311F089E801C088E88EBDC0
:100340000DB407FEFDCF8EB5CD0156E0969587958D
:100350005A95E1F78EBD0DB407FEFDCF8EB58A2FFD
:10036000880F880F8EBD0DB407FEFDCF8EB51EBC65
:100370000DB407FEFDCF8EB52A9A0895282F2A982E
:1003800082E88EBD0DB407FEFDCF8EB51EBC0DB448
:1003900007FEFDCF8EB51EBC0DB407FEFDCF8EB59A
:1003A0001EBC0DB407FEFDCF8EB580E090E02EBDE3
:1003B0000DB407FEFDCF3EB5019632E080309307C5
:1003C000B1F72A9A08959C012A9880E58EBD0DB454
:1003D00007FEFDCF8EB5C90163E0969587956A95B6
:1003E000E1F78EBD0DB407FEFDCF8EB5822F82954D
:1003F000880F807E8EBD0DB407FEFDCF8EB51EBC6E
:100400000DB407FEFDCF8EB52A9A08952A9887ED80
:100410008EBD0DB407FEFDCF8EB51EBC0DB407FE1C
:10042000FDCF8EB52A9A880F880B809508950F937B
:100430001F93CF93DF9390E074E0880F991F7A9514
:10044000E1F7EC0121968C010F5E1F4FCE010E9457
:10045000E3010E9406028823E1F72196C017D10725
:10046000A9F7DF91CF911F910F910895882339F457
:100470002A9889EB8EBD0DB407FEFDCF06C02A98E1
:100480008BEA8EBD0DB407FEFDCF8EB52A9A089576
:10049000806480937C0080917A00806480937A00ED
:1004A00080917A0086FDFCCF909178008091790050
:1004B000382F20E0290F311DC90108958EE00E94D8
:1004C00048029C01220F331F309521953F4FAC010C
:1004D0005695479556954795241B350B27513B4E0E
:1004E000880F991F880F991F281B390BC901089580
:1004F0008EBD0DB407FEFDCF8EB50895982F84EA0A
:100500008093BC008091BC0087FFFCCF6170990F85
:10051000962B9093BB0084E88093BC008091BC0034
:1005200087FFFCCF0895823000F588E660E00E94E6
:100530007E028EE38093BB0084E88093BC008091B0
:10054000BC0087FFFCCF80E48093BB0084E88093ED
:10055000BC008091BC0087FFFCCF84E98093BC0085
:100560008091BC0084FDFCCF089588E660E00E9485
:100570007E028EE38093BB0084E88093BC00809170
:10058000BC0087FFFCCF81E08093BB0084E88093B0
:10059000BC008091BC0087FFFCCF84E98093BC0045
:1005A0008091BC0084FDFCCF80EA9FE00197F1F7C9
:1005B00088E660E00E947E0285E18093BB0084E8CB
:1005C0008093BC008091BC0087FFFCCF1092BB00E1
:1005D00084E88093BC008091BC0087FFFCCF88E159
:1005E0008093BB0084E88093BC008091BC0087FFAF
:1005F000FCCF84E98093BC008091BC0084FDFCCFDB
:100600000895CF93DF93EC0188E660E00E947E02BC
:100610008DE18093BB0084E88093BC008091BC0096
:1006200087FFFCCF84E98093BC008091BC0084FDEF
:10063000FCCF88E661E00E947E02FE01E35BFC4F96
:1006400020E0C633D105C8F480E090E0253010F4F6
:1006500081E090E0B6E0880F991FBA95E1F78468D1
:100660008093BC008091BC0087FFFCCF8091BB00D1
:10067000819321962F5F263021F784E98093BC0077
:100680008091BC0084FDFCCFCE01DF91CF91089515
:100690007F928F929F92AF92BF92CF92DF92EF9212
:1006A000FF920F931F93CF93DF93289889EB8EBD12
:1006B0000DB407FEFDCF8EB51EBC0DB407FEFDCFF9
:1006C0001EB5289A02EB0FC028980EBD0DB407FE88
:1006D000FDCF8EB51EBC0DB407FEFDCF8EB5289A9A
:1006E0000E945E0211501A3178F780914B03C82E98
:1006F000DD24D694DC2CCC24D794C79488E090E0F9
:10070000C80ED91E1092850010928400AA24BB2422
:10071000FF2419EB712E299A809084009090850017
:10072000FF2011F000E001C00CE0C0E0D0E0EE24BA
:1007300042C080918400909185008A199B09883A73
:10074000910560F0123050F4A0908400B0908500C4
:100750001F5F802F90E00E940103082F4A9BE9CF82
:1007600028987EBC0DB407FEFDCF8EB51EBC0DB41F
:1007700007FEFDCF8EB5289ACE010E945300EC01F2
:100780004A99FECF28987EBC0DB407FEFDCF8EB5EA
:100790001EBC0DB407FEFDCF8EB5289AA090840034
:1007A000B0908500802F90E00E940103E39493E0D5
:1007B000E91619F0082F10E0D1CFEDE4F3E0DE01E7
:1007C000AD57BC4F81918D9383E0E338F807D1F7A3
:1007D0009E012A5C3F4F90927B0580927C05809120
:1007E00084009091850090937D0580937E053093E1
:1007F0007F05209380059FE7F91631F40E945E0281
:10080000909381058093820529986F2D6170C601B0
:100810008F0D911D43E853E00E946A01F39480E834
:10082000F81609F078CF0E9406028823E1F780913C
:100830004B038E3110F080E001C08F5F80934B033B
:100840000E94170280914B030E94BE010E94060283
:100850008823E1F7DF91CF911F910F91FF90EF90E7
:10086000DF90CF90BF90AF909F908F907F90089532
:100870004B9B21C0299A289880EB8EBD0DB407FEB2
:10088000FDCF8EB51EBC0DB407FEFDCF8EB5289AE8
:1008900083FF02C010924C0382FF09C080914C0379
:1008A000882311F40E94480381E080934C0380E286
:1008B0009EE40197F1F72998089584E98093BC009C
:1008C0008091BC0084FDFCCF08958093BB0084E838
:1008D0008093BC008091BC0087FFFCCF0895829577
:1008E000880F880F807C84688093BC008091BC0056
:1008F00087FFFCCF8091BB0008951F93182F8A308B
:1009000019F48DE00E947D048091C00085FFFCCF2A
:100910001093C60080E090E01F9108958091C00080
:1009200087FFFCCF8091C60008952F923F924F928F
:100930005F926F927F928F929F92AF92BF92CF926F
:10094000DF92EF92FF920F931F93DF93CF930F925B
:10095000CDB7DEB78983262E332444245524642E54
:1009600077248824992483C0299AC201B1010E9466
:10097000A4085B016C0120E030E04AE755E40E94E6
:1009800032097B018C0120E030E040E85FE30E9407
:10099000740888231CF461E070E023C0C801B7012B
:1009A00020E03FEF4FE757E40E942E091816ACF401
:1009B000C601B50120E030E040E251E40E94320976
:1009C0000E94780806C080E991E00197F1F7615034
:1009D000704061157105B9F707C0C801B7010E94E1
:1009E0007808CB010197F1F72998C401B3010E945F
:1009F000A4085B016C0120E030E04AE755E40E9466
:100A000032097B018C0120E030E040E85FE30E9486
:100A1000740888231CF461E070E023C0C801B701AA
:100A200020E03FEF4FE757E40E942E091816ACF480
:100A3000C601B50120E030E040E251E40E943209F5
:100A40000E94780806C080E991E00197F1F76150B3
:100A5000704061157105B9F707C0C801B7010E9460
:100A60007808CB010197F1F7898181508983E98169
:100A7000EE2309F079CF0F90CF91DF911F910F9165
:100A8000FF90EF90DF90CF90BF90AF909F908F90AE
:100A90007F906F905F904F903F902F9008950F93AD
:100AA0001F93CF93DF93289880E88EBD0DB407FE87
:100AB000FDCF8EB51EBC0DB407FEFDCF0EB5289A36
:100AC0002A988BEA8EBD0DB407FEFDCF8EB52A9A0B
:100AD00080EA9FE00197F1F72A988FE98EBD0DB467
:100AE00007FEFDCF8EB51EBC0DB407FEFDCF8EB543
:100AF0001EBC0DB407FEFDCF1EB52A9A82E00E94EF
:100B0000930288E660E00E947E021092BB0084E8B7
:100B10008093BC008091BC0087FFFCCF84E9809368
:100B2000BC008091BC0084FDFCCF88E661E00E949F
:100B30007E0284E88093BC008091BC0087FFFCCFDC
:100B40009091BB0084E98093BC008091BC0084FD3F
:100B5000FCCFC92FD0E08DB79EB708970FB6F89499
:100B60009EBF0FBE8DBFEDB7FEB7319680E091E01E
:100B7000ADB7BEB712969C938E93119702831382E2
:100B800014831582D783C6830E94BD098DB79EB793
:100B900008960FB6F8949EBF0FBE8DBF053E51F468
:100BA000163241F480E0CE77D070C836D10519F402
:100BB00081E001C080E0DF91CF911F910F910895F6
:100BC0002F923F924F925F926F927F928F929F925D
:100BD000AF92BF92CF92DF92EF92FF920F931F934B
:100BE000DF93CF9300D000D00F92CDB7DEB78F3117
:100BF00008F0FCC0C82EDD24D694DC2CCC24D7947D
:100C0000C79428E030E0C20ED31E1B82C6013B8190
:100C1000830F911D63E873E00E940F0180E090E074
:100C20004AC000D0EEE1F1E0ADB7BEB71296FC933A
:100C3000EE9311970E94BD090C811D810D571C4F29
:100C40001A820F900F9000D000D0E2E2F1E0ADB731
:100C5000BEB71296FC93EE931197D80111969C9013
:100C6000119788248C9190E088299929EDB7FEB7D7
:100C7000948383830E94BD09FA81FE5FFA830E5F2D
:100C80001F4F0F900F900F900F90F630E1F62C81D0
:100C90003D812A5F3F4F3D832C838AE090E00E9494
:100CA000D2098C819D818215930509F0BACFA1E00C
:100CB000823C9A0741F09D838C8326E9222E312CB9
:100CC000280E391EAECF00D026E231E0EDB7FEB7D8
:100CD000328321830E94BD090C811D810D571C4F59
:100CE00019820F900F9000D000D0E2E2F1E0ADB792
:100CF000BEB71296FC93EE931197D8017C906624B0
:100D000011968C9190E086299729EDB7FEB79483D0
:100D100083830E94BD09F981FE5FF9830E5F1F4F37
:100D20000F900F900F900F90F630E9F68AE090E068
:100D30000E94D2092C813D8181E0223F380729F0B1
:100D40002A5F3F4F3D832C83BECF00D000D000D020
:100D5000EDB7FEB731962AE231E0ADB7BEB71296D5
:100D60003C932E931197B0907B05AA2480917C052B
:100D7000D501A80FB11DB383A283F0907D05EE24A9
:100D800080917E059701280F311D358324830E94B1
:100D9000BD098DB79EB706960FB6F8949EBF0FBEDD
:100DA0008DBF9B819F37E1F400D000D0E4E3F1E0F8
:100DB000ADB7BEB71296FC93EE9311975090810594
:100DC0004424809182059201280F311D14963C9392
:100DD0002E9313970E94BD090F900F900F900F90C4
:100DE0003B813F5F3B83303809F010CF0F900F906D
:100DF0000F900F900F90CF91DF911F910F91FF9067
:100E0000EF90DF90CF90BF90AF909F908F907F90AA
:100E10006F905F904F903F902F90089585B78061BD
:100E200085BF1092800084E08093810084B18F6040
:100E300084B987B187B9519A85B1876285B9109213
:100E4000C50088E08093C40088E98093C1008BE3EB
:100E500093E090938605809385058CE58CBD84E4B2
:100E60008093BC008091B9008C7F8093B9008CE0A6
:100E70008093B80080E480937C0086E880937A00B9
:100E80008FE380937E008BE391E00E94D90984E197
:100E90006AE048E20E94950400D08DE591E0EDB74C
:100EA000FEB7928381830E94BD090F900F900E942C
:100EB0004F058823A9F18FE691E00E94D9090E948D
:100EC000790082E00E94C10082E00E949302E3E880
:100ED000F3E08AE2819395E0E238F907D9F78AE0F6
:100EE000808380E090E060E070E00E9442018093A7
:100EF0004B0300D000D022E731E0EDB7FEB73283DC
:100F0000218390E00196948383830E94BD090F9012
:100F10000F900F900F9080914B038E31C0F00AC05C
:100F200088E891E00E94D9098AE06EE14EE10E94D2
:100F30009504089580E991E00E94D90910924B032D
:100F400080E00E94BE010E9406028823E1F78091A2
:100F50004B030E94170289EB91E00E94D909789413
:100F600008950E940E070E943804FDCF1F920F9231
:100F70000FB60F9211242F933F934F935F936F936C
:100F80007F938F939F93AF93BF93EF93FF93809142
:100F9000C6008434D1F0853478F48F3309F46FC0FF
:100FA000803430F48B32B1F08D3209F08CC01BC02C
:100FB000823409F088C03DC0823549F1843509F496
:100FC00043C08E3409F07FC045C080914B030E941E
:100FD000E00579C080914B038E3110F02EE10BC0FB
:100FE000282F2F5F08C080914B03882311F420E045
:100FF00002C0282F215020934B0300D000D08DE257
:1010000092E0EDB7FEB792838183822F2DC01092BC
:101010004B0380E00E94170280914B030E94BE01A7
:101020000E9406028823E1F788E392E00E94D90932
:101030004AC00E945E0200D000D029E432E0EDB741
:10104000FEB73283218312C086E592E00E94D9095F
:101050000E94480300D000D08DE292E0EDB7FEB7C9
:101060009283818380914B0390E0019694838383E4
:101070000E94BD090F900F900F900F9024C089EB34
:1010800091E00E94D90980E090E060E070E00E9469
:10109000420100D000D022E732E0EDB7FEB7328344
:1010A000218390E00196948383830E94BD090F9071
:1010B0000F908AE992E0EDB7FEB7928381830E9498
:1010C000BD090F900F90FF91EF91BF91AF919F914C
:1010D0008F917F916F915F914F913F912F910F90E1
:1010E0000FBE0F901F9018956CD008F481E0089502
:1010F00094D088F09F5790F0B92F9927B751A0F05E
:10110000D1F0660F771F881F991F1AF0BA95C9F79B
:1011100012C0B13081F09BD0B1E0089598C0672F24
:10112000782F8827B85F39F0B93FCCF3869577954B
:101130006795B395D9F73EF4909580957095619534
:101140007F4F8F4F9F4F0895E89409C097FB3EF45F
:1011500090958095709561957F4F8F4F9F4F992304
:10116000A9F0F92F96E9BB279395F6958795779582
:101170006795B795F111F8CFFAF4BB0F11F460FF42
:101180001BC06F5F7F4F8F4F9F4F16C0882311F09A
:1011900096E911C0772321F09EE8872F762F05C0AE
:1011A000662371F096E8862F70E060E02AF09A9549
:1011B000660F771F881FDAF7880F9695879597F93E
:1011C0000895990F0008550FAA0BE0E8FEEF1616D8
:1011D0001706E807F907C0F012161306E407F5072B
:1011E00098F0621B730B840B950B39F40A2661F09F
:1011F000232B242B252B21F408950A2609F4A14042
:10120000A6958FEF811D811D089557FD9058440FBD
:10121000551F59F05F3F71F04795880F97FB991F55
:1012200061F09F3F79F08795089512161306140612
:10123000551FF2CF4695F1DF08C01616170618069F
:10124000991FF1CF86957105610508940895E8947A
:10125000BB2766277727CB0197F90895B2DF08F4FB
:101260008FEF08950BD078C069D028F06ED018F0B9
:10127000952309F05AC05FC01124EACFC6DFA0F35E
:10128000959FD1F3950F50E0551F629FF001729F1B
:10129000BB27F00DB11D639FAA27F00DB11DAA1F3A
:1012A000649F6627B00DA11D661F829F2227B00D87
:1012B000A11D621F739FB00DA11D621F839FA00D12
:1012C000611D221F749F3327A00D611D231F849F62
:1012D000600D211D822F762F6A2F11249F575040B9
:1012E0008AF0E1F088234AF0EE0FFF1FBB1F661F54
:1012F000771F881F91505040A9F79E3F510570F00D
:1013000014C0A6CF5F3FECF3983EDCF3869577954B
:101310006795B795F795E7959F5FC1F7FE2B880F07
:10132000911D9695879597F9089597F99F6780E89D
:1013300070E060E008959FEF80EC089500240A9427
:101340001616170618060906089500240A941216A0
:101350001306140605060895092E0394000C11F4D3
:10136000882352F0BB0F40F4BF2B11F460FF04C080
:101370006F5F7F4F8F4F9F4F0895A0E0B0E0E3EC89
:10138000F9E00C949B0CFE0135966191719180916E
:10139000850590918605AF010E940E0A2096E2E035
:1013A0000C94B70C60918505709186050E94010C24
:1013B00008950F931F93CF93DF938C01E0918505E0
:1013C000F0918605838181FF21C0C0E0D0E00DC08F
:1013D000E0918505F091860520853185BF01F901F1
:1013E0000995892B11F0CFEFDFEFF80181918F0183
:1013F000882371F7E0918505F09186052085318578
:101400008AE0BF01F9010995892B11F0CFEFDFEFD9
:10141000CE01DF91CF911F910F910895ABE0B0E025
:10142000E4E1FAE00C948B0C3C012B015A01FC0125
:1014300017821682838181FD03C06FEF7FEFC6C1E3
:101440009AE0892E1E010894211C311CF30123818E
:10145000F20123FD859123FF81912F01882309F457
:10146000B2C1853239F423FD859123FF81912F018B
:10147000853229F490E0B3010E94010CE7CF982F48
:10148000FF24EE249924FFE1FF15D0F09B3269F090
:101490009C3228F4903259F0933291F40EC09D3270
:1014A00049F0903369F441E024C052E0F52A84E029
:1014B000F82A28C098E0F92A25C0E0E1FE2A22C0D7
:1014C000F7FC29C0892F80538A3070F4F6FE05C0DE
:1014D000989C902C1124980E15C0E89CE02C1124A7
:1014E000E80EF0E2FF2A0EC09E3229F4F6FC6BC132
:1014F00040E4F42A07C09C3619F450E8F52A02C0EB
:10150000983649F4F20123FD959123FF91912F0123
:10151000992309F0B8CF892F8554833018F0805271
:10152000833038F444E050E0A40EB51E5FE35983E5
:101530000FC0933631F0933779F0933509F056C0E8
:1015400020C0F5018081898342E050E0A40EB51EE1
:10155000610101E010E012C0F501C080D180F6FC0D
:1015600003C06FEF7FEF02C0692D70E042E050E0F2
:10157000A40EB51EC6010E94F60B8C015FE7F52292
:1015800014C0F501C080D180F6FC03C06FEF7FEF7F
:1015900002C0692D70E042E050E0A40EB51EC60105
:1015A0000E94EB0B8C0150E8F52AF3FE07C01AC02D
:1015B00080E290E0B3010E94010CEA948E2D90E04D
:1015C00008171907A8F30EC0F601F7FC8591F7FE7E
:1015D00081916F0190E0B3010E94010CE110EA9447
:1015E000015010400115110579F7EAC0943611F049
:1015F000993669F5F7FE08C0F501208131814281F5
:10160000538184E090E00AC0F501808191819C01C2
:10161000442737FD4095542F82E090E0A80EB91E74
:101620009FE6F92257FF09C05095409530952195C6
:101630003F4F4F4F5F4FE0E8FE2ACA01B901A101B9
:101640002AE030E00E942D0CD82ED21840C09537E9
:1016500029F41F2D1F7E2AE030E01DC01F2D197FA9
:101660009F3661F0903720F4983509F0ACC00FC078
:10167000903739F0983709F0A6C004C028E030E070
:101680000AC0106114FD146020E130E004C014FDB4
:10169000166020E132E017FF08C0F501608171811A
:1016A0008281938144E050E008C0F50180819181FE
:1016B000BC0180E090E042E050E0A40EB51EA10124
:1016C0000E942D0CD82ED2188FE7F82EF122F6FEAC
:1016D0000BC05EEFF522D91438F4F4FE07C0F2FC1B
:1016E00005C08FEEF82202C01D2D01C0192DF4FE99
:1016F0000DC0FE01ED0DF11D8081803319F499EECE
:10170000F92208C01F5FF2FE05C003C08F2D867846
:1017100009F01F5F0F2DF3FC14C0F0FE0FC01E1563
:1017200010F09D2C0BC09D2C9E0C911A1E2D06C0F6
:1017300080E290E0B3010E94010C1F5F1E15C0F310
:1017400004C01E1510F4E11A01C0EE2404FF0FC0FE
:1017500080E390E0B3010E94010C02FF1DC001FD77
:1017600003C088E790E00EC088E590E00BC0802FB2
:10177000867891F001FF02C08BE201C080E2F7FCA5
:101780008DE290E0B3010E94010C06C080E390E07E
:10179000B3010E94010C9A94D914C0F3DA94F101B8
:1017A000ED0DF11D808190E0B3010E94010CDD2060
:1017B000A9F706C080E290E0B3010E94010CEA9410
:1017C000EE20C1F743CEF30166817781CB012B96E2
:1017D000E2E10C94A70CFC010590615070400110EF
:1017E000D8F7809590958E0F9F1F0895FC0161504A
:1017F000704001900110D8F7809590958E0F9F1F33
:1018000008950F931F93CF93DF938C01EB018B818E
:1018100081FF1BC082FF0DC02E813F818C819D8185
:101820002817390764F4E881F9810193F983E88383
:1018300006C0E885F985802F0995892B31F48E81C2
:101840009F8101969F838E8302C00FEF1FEFC80117
:10185000DF91CF911F910F910895FA01AA272830A7
:1018600051F1203181F1E8946F936E7F6E5F7F4F6D
:101870008F4F9F4FAF4FB1E03ED0B4E03CD0670FE9
:10188000781F891F9A1FA11D680F791F8A1F911D3C
:10189000A11D6A0F711D811D911DA11D20D009F48C
:1018A00068943F912AE0269F11243019305D3193CE
:1018B000DEF6CF010895462F4770405D4193B3E0B7
:1018C0000FD0C9F7F6CF462F4F70405D4A3318F05E
:1018D000495D31FD4052419302D0A9F7EACFB4E00F
:1018E000A6959795879577956795BA95C9F70097C7
:1018F0006105710508959B01AC010A2E0694579568
:10190000479537952795BA95C9F7620F731F841FBE
:10191000951FA01D08952F923F924F925F926F9254
:101920007F928F929F92AF92BF92CF92DF92EF926F
:10193000FF920F931F93CF93DF93CDB7DEB7CA1BF0
:10194000DB0B0FB6F894DEBF0FBECDBF09942A881B
:10195000398848885F846E847D848C849B84AA84C3
:10196000B984C884DF80EE80FD800C811B81AA8150
:10197000B981CE0FD11D0FB6F894DEBF0FBECDBF1B
:08198000ED010895F894FFCF7A
:10198800416363656C3A20255809466C6173683A6F
:10199800202558094779726F3A2025580A005F4177
:1019A8000900256409005F4709005F540925750986
:1019B80025750A005F420925750A000A0A42595529
:1019C8002053706C617368204C6F67676572206480
:1019D8006576204A756C79323031320A0044657672
:1019E80069636520494420436865636B3A20004F6A
:1019F8004B00496D70656E64696E67205465737439
:101A080020233A2025750A004641494C45442100C7
:101A1800466C617368204D656D6F72792046756CF0
:101A28006C2C20526573657474696E6720546573F5
:101A380074202320746F2031000A436F6E736F6C1B
:101A480065205573656167653A0A2B2F2D09496E24
:101A5800632F446563230A440944756D700A52096B
:101A680052657365742054657374233D310A4209C5
:101A780042617474657279206D560A4E0943757215
:101A880072656E742054657374230A5409466F7224
:101A9800636520547269676765720A3F09436F6E10
:101AA800736F6C65205573656167650A00546573CB
:101AB80074233A2025750A005465737423205265EF
:101AC80073657420746F2031004261747465727993
:101AD8003A2025750A00466F72636564205472695E
:101AE800676765722C2053616D706C696E672E2E66
:101AF8002E00496D70656E64696E67205465737455
:101B080023202853746F72656420696E20466C61C7
:101B18007368293A2025750A0A00496D706F727436
:101B2800616E7420496E666F3A205F5420756E6945
:101B38007473206172652036322E35206B487A2006
:101B4800636C6F636B207469636B732C20726F6CAA
:101B58006C206F766572206F6E20325E31360A54C3
:101B6800657374204475726174696F6E3A20332E00
:101B78003030205365633B203936303020536120A4
:101B880066726F6D204144584C3334352040203301
:101B98003230302053612F736563202B2F2D302E68
:101BA8003525250A0A00B00000003050F008040569
:101BB800FF08140F000F200083000B000000020034
:0A1BC8000000007D04000000000092
:00000001FF
